{
  "_format": "hh-sol-artifact-1",
  "contractName": "stressTest",
  "sourceName": "contracts/stressTest.sol",
  "abi": [
    {
      "anonymous": false,
      "inputs": [
        {
          "indexed": false,
          "internalType": "uint256",
          "name": "",
          "type": "uint256"
        }
      ],
      "name": "AddNumber",
      "type": "event"
    },
    {
      "inputs": [
        {
          "components": [
            {
              "internalType": "address payable",
              "name": "testAccount",
              "type": "address"
            }
          ],
          "internalType": "struct stressTest.testAccounts[]",
          "name": "accounts",
          "type": "tuple[]"
        }
      ],
      "name": "addETH",
      "outputs": [],
      "stateMutability": "nonpayable",
      "type": "function"
    },
    {
      "inputs": [],
      "name": "addNumber",
      "outputs": [],
      "stateMutability": "nonpayable",
      "type": "function"
    },
    {
      "stateMutability": "payable",
      "type": "receive"
    }
  ],
  "bytecode": "0x608060405234801561001057600080fd5b50610333806100206000396000f3fe60806040526004361061002d5760003560e01c8063ba65a52314610039578063bf878cde1461005057600080fd5b3661003457005b600080fd5b34801561004557600080fd5b5061004e610070565b005b34801561005c57600080fd5b5061004e61006b3660046101e5565b6100c1565b60008054908061007f8361025a565b91905055507f7403a6f6fe7914dd5f03ce6db5431f0d3c0da31ebac6210c64b9a0fe3f3796466000546040516100b791815260200190565b60405180910390a1565b60005b818110156101e05760008383838181106100e0576100e06102ba565b6100f49260209182020190810191506102e9565b905060008173ffffffffffffffffffffffffffffffffffffffff1666071afd498d000060405160006040518083038185875af1925050503d8060008114610157576040519150601f19603f3d011682016040523d82523d6000602084013e61015c565b606091505b50509050806101cb576040517f08c379a000000000000000000000000000000000000000000000000000000000815260206004820152601260248201527f4661696c656420746f2073656e64204554480000000000000000000000000000604482015260640160405180910390fd5b505080806101d89061025a565b9150506100c4565b505050565b600080602083850312156101f857600080fd5b823567ffffffffffffffff8082111561021057600080fd5b818501915085601f83011261022457600080fd5b81358181111561023357600080fd5b8660208260051b850101111561024857600080fd5b60209290920196919550909350505050565b60007fffffffffffffffffffffffffffffffffffffffffffffffffffffffffffffffff8214156102b3577f4e487b7100000000000000000000000000000000000000000000000000000000600052601160045260246000fd5b5060010190565b7f4e487b7100000000000000000000000000000000000000000000000000000000600052603260045260246000fd5b6000602082840312156102fb57600080fd5b813573ffffffffffffffffffffffffffffffffffffffff8116811461031f57600080fd5b939250505056fea164736f6c6343000809000a",
  "linkReferences": {},
  "deployedLinkReferences": {}
}